{
  "address": "0x5FbDB2315678afecb367f032d93F642f64180aa3",
  "abi": [
    {
      "inputs": [
        {
          "internalType": "address[]",
          "name": "_owners",
          "type": "address[]"
        },
        {
          "internalType": "uint256",
          "name": "_numConfirmationsRequired",
          "type": "uint256"
        }
      ],
      "stateMutability": "nonpayable",
      "type": "constructor"
    },
    {
      "inputs": [],
      "name": "MultiSigWallet__NotAnOwner",
      "type": "error"
    },
    {
      "inputs": [],
      "name": "MultiSigWallet__NotConfirmed",
      "type": "error"
    },
    {
      "inputs": [],
      "name": "MultiSigWallet__NotConfirmedByOwner",
      "type": "error"
    },
    {
      "inputs": [],
      "name": "MultiSigWallet__NotEnoughConfirmations",
      "type": "error"
    },
    {
      "inputs": [],
      "name": "MultiSigWallet__NotEnoughNumberOfConfirmations",
      "type": "error"
    },
    {
      "inputs": [],
      "name": "MultiSigWallet__TxExecuted",
      "type": "error"
    },
    {
      "inputs": [],
      "name": "MultiSigWallet__TxNotExist",
      "type": "error"
    },
    {
      "anonymous": false,
      "inputs": [
        {
          "indexed": true,
          "internalType": "address",
          "name": "sender",
          "type": "address"
        },
        {
          "indexed": false,
          "internalType": "uint256",
          "name": "amount",
          "type": "uint256"
        },
        {
          "indexed": false,
          "internalType": "uint256",
          "name": "balance",
          "type": "uint256"
        }
      ],
      "name": "Deposit",
      "type": "event"
    },
    {
      "anonymous": false,
      "inputs": [
        {
          "indexed": true,
          "internalType": "address",
          "name": "owner",
          "type": "address"
        },
        {
          "indexed": true,
          "internalType": "uint256",
          "name": "txIndex",
          "type": "uint256"
        }
      ],
      "name": "confirmationRevoke",
      "type": "event"
    },
    {
      "anonymous": false,
      "inputs": [
        {
          "indexed": true,
          "internalType": "address",
          "name": "owner",
          "type": "address"
        },
        {
          "indexed": true,
          "internalType": "uint256",
          "name": "txIndex",
          "type": "uint256"
        }
      ],
      "name": "transactionConfirm",
      "type": "event"
    },
    {
      "anonymous": false,
      "inputs": [
        {
          "indexed": true,
          "internalType": "address",
          "name": "owner",
          "type": "address"
        },
        {
          "indexed": true,
          "internalType": "uint256",
          "name": "txIndex",
          "type": "uint256"
        }
      ],
      "name": "transactionExecute",
      "type": "event"
    },
    {
      "anonymous": false,
      "inputs": [
        {
          "indexed": true,
          "internalType": "address",
          "name": "owner",
          "type": "address"
        },
        {
          "indexed": true,
          "internalType": "uint256",
          "name": "txIndex",
          "type": "uint256"
        },
        {
          "indexed": true,
          "internalType": "address",
          "name": "to",
          "type": "address"
        },
        {
          "indexed": false,
          "internalType": "uint256",
          "name": "value",
          "type": "uint256"
        },
        {
          "indexed": false,
          "internalType": "bytes",
          "name": "data",
          "type": "bytes"
        }
      ],
      "name": "transactionSubmit",
      "type": "event"
    },
    {
      "inputs": [
        {
          "internalType": "uint256",
          "name": "txIndex",
          "type": "uint256"
        }
      ],
      "name": "confirmTransaction",
      "outputs": [],
      "stateMutability": "nonpayable",
      "type": "function"
    },
    {
      "inputs": [
        {
          "internalType": "uint256",
          "name": "txIndex",
          "type": "uint256"
        }
      ],
      "name": "executeTransaction",
      "outputs": [],
      "stateMutability": "nonpayable",
      "type": "function"
    },
    {
      "inputs": [],
      "name": "getNumOfOwners",
      "outputs": [
        {
          "internalType": "uint256",
          "name": "",
          "type": "uint256"
        }
      ],
      "stateMutability": "view",
      "type": "function"
    },
    {
      "inputs": [],
      "name": "getNumberOfConfirmationsRequired",
      "outputs": [
        {
          "internalType": "uint256",
          "name": "",
          "type": "uint256"
        }
      ],
      "stateMutability": "view",
      "type": "function"
    },
    {
      "inputs": [
        {
          "internalType": "uint256",
          "name": "index",
          "type": "uint256"
        }
      ],
      "name": "getOwner",
      "outputs": [
        {
          "internalType": "address",
          "name": "",
          "type": "address"
        }
      ],
      "stateMutability": "view",
      "type": "function"
    },
    {
      "inputs": [
        {
          "internalType": "uint256",
          "name": "index",
          "type": "uint256"
        }
      ],
      "name": "getTx",
      "outputs": [
        {
          "internalType": "address",
          "name": "to",
          "type": "address"
        },
        {
          "internalType": "uint256",
          "name": "value",
          "type": "uint256"
        },
        {
          "internalType": "bytes",
          "name": "data",
          "type": "bytes"
        },
        {
          "internalType": "bool",
          "name": "executed",
          "type": "bool"
        },
        {
          "internalType": "uint256",
          "name": "numConfirmations",
          "type": "uint256"
        }
      ],
      "stateMutability": "view",
      "type": "function"
    },
    {
      "inputs": [],
      "name": "getTxCount",
      "outputs": [
        {
          "internalType": "uint256",
          "name": "",
          "type": "uint256"
        }
      ],
      "stateMutability": "view",
      "type": "function"
    },
    {
      "inputs": [
        {
          "internalType": "uint256",
          "name": "txIndex",
          "type": "uint256"
        }
      ],
      "name": "revokeConfirmation",
      "outputs": [],
      "stateMutability": "nonpayable",
      "type": "function"
    },
    {
      "inputs": [
        {
          "internalType": "address",
          "name": "_to",
          "type": "address"
        },
        {
          "internalType": "uint256",
          "name": "_value",
          "type": "uint256"
        },
        {
          "internalType": "bytes",
          "name": "_data",
          "type": "bytes"
        }
      ],
      "name": "submitTransaction",
      "outputs": [],
      "stateMutability": "nonpayable",
      "type": "function"
    },
    {
      "stateMutability": "payable",
      "type": "receive"
    }
  ],
  "transactionHash": "0xfd401b044d201900b79288f9d18b0259013fe20ace344ea2ea6afc53e6c0d4d1",
  "args": [
    [
      "0xf39Fd6e51aad88F6F4ce6aB8827279cffFb92266",
      "0x70997970C51812dc3A010C7d01b50e0d17dc79C8",
      "0x3C44CdDdB6a900fa2b585dd299e03d12FA4293BC",
      "0x90F79bf6EB2c4f870365E785982E1f101E93b906"
    ],
    3
  ],
  "numDeployments": 1,
  "solcInputHash": "c7fe5e545837d3cda82c877b2945151b",
  "bytecode": "0x60806040523480156200001157600080fd5b5060405162001d4338038062001d43833981810160405281019062000037919062000503565b60008251116200007e576040517f08c379a00000000000000000000000000000000000000000000000000000000081526004016200007590620005ca565b60405180910390fd5b6000811180156200008f5750815181115b15620000c7576040517f22d5490400000000000000000000000000000000000000000000000000000000815260040160405180910390fd5b60005b8251811015620002ca576000838281518110620000ec57620000eb620005ec565b5b60200260200101519050600073ffffffffffffffffffffffffffffffffffffffff168173ffffffffffffffffffffffffffffffffffffffff160362000168576040517f08c379a00000000000000000000000000000000000000000000000000000000081526004016200015f906200066b565b60405180910390fd5b600360008273ffffffffffffffffffffffffffffffffffffffff1673ffffffffffffffffffffffffffffffffffffffff16815260200190815260200160002060009054906101000a900460ff1615620001f8576040517f08c379a0000000000000000000000000000000000000000000000000000000008152600401620001ef90620006dd565b60405180910390fd5b6001600360008373ffffffffffffffffffffffffffffffffffffffff1673ffffffffffffffffffffffffffffffffffffffff16815260200190815260200160002060006101000a81548160ff0219169083151502179055506000819080600181540180825580915050600190039060005260206000200160009091909190916101000a81548173ffffffffffffffffffffffffffffffffffffffff021916908373ffffffffffffffffffffffffffffffffffffffff160217905550508080620002c1906200072e565b915050620000ca565b508060018190555050506200077b565b6000604051905090565b600080fd5b600080fd5b600080fd5b6000601f19601f8301169050919050565b7f4e487b7100000000000000000000000000000000000000000000000000000000600052604160045260246000fd5b6200033e82620002f3565b810181811067ffffffffffffffff8211171562000360576200035f62000304565b5b80604052505050565b600062000375620002da565b905062000383828262000333565b919050565b600067ffffffffffffffff821115620003a657620003a562000304565b5b602082029050602081019050919050565b600080fd5b600073ffffffffffffffffffffffffffffffffffffffff82169050919050565b6000620003e982620003bc565b9050919050565b620003fb81620003dc565b81146200040757600080fd5b50565b6000815190506200041b81620003f0565b92915050565b600062000438620004328462000388565b62000369565b905080838252602082019050602084028301858111156200045e576200045d620003b7565b5b835b818110156200048b57806200047688826200040a565b84526020840193505060208101905062000460565b5050509392505050565b600082601f830112620004ad57620004ac620002ee565b5b8151620004bf84826020860162000421565b91505092915050565b6000819050919050565b620004dd81620004c8565b8114620004e957600080fd5b50565b600081519050620004fd81620004d2565b92915050565b600080604083850312156200051d576200051c620002e4565b5b600083015167ffffffffffffffff8111156200053e576200053d620002e9565b5b6200054c8582860162000495565b92505060206200055f85828601620004ec565b9150509250929050565b600082825260208201905092915050565b7f4e6f7420656e6f756768206f776e657273000000000000000000000000000000600082015250565b6000620005b260118362000569565b9150620005bf826200057a565b602082019050919050565b60006020820190508181036000830152620005e581620005a3565b9050919050565b7f4e487b7100000000000000000000000000000000000000000000000000000000600052603260045260246000fd5b7f496e76616c6964206f776e657220616464726573730000000000000000000000600082015250565b60006200065360158362000569565b915062000660826200061b565b602082019050919050565b60006020820190508181036000830152620006868162000644565b9050919050565b7f416c7265616479206f776e657200000000000000000000000000000000000000600082015250565b6000620006c5600d8362000569565b9150620006d2826200068d565b602082019050919050565b60006020820190508181036000830152620006f881620006b6565b9050919050565b7f4e487b7100000000000000000000000000000000000000000000000000000000600052601160045260246000fd5b60006200073b82620004c8565b91507fffffffffffffffffffffffffffffffffffffffffffffffffffffffffffffffff820362000770576200076f620006ff565b5b600182019050919050565b6115b8806200078b6000396000f3fe60806040526004361061008a5760003560e01c8063b8c8933811610059578063b8c8933814610190578063c01a8c84146101d1578063c41a360a146101fa578063c642747414610237578063ee22610b14610260576100e1565b80631dd46c1e146100e657806320ea8d86146101115780635daaac5b1461013a57806366991ef914610165576100e1565b366100e1573373ffffffffffffffffffffffffffffffffffffffff167f90890809c654f11d6e72a28fa60149770a0d11ec6c92319d6ceb2bb0a4ea1a1534476040516100d7929190610f05565b60405180910390a2005b600080fd5b3480156100f257600080fd5b506100fb610289565b6040516101089190610f2e565b60405180910390f35b34801561011d57600080fd5b5061013860048036038101906101339190610f89565b610296565b005b34801561014657600080fd5b5061014f61054b565b60405161015c9190610f2e565b60405180910390f35b34801561017157600080fd5b5061017a610557565b6040516101879190610f2e565b60405180910390f35b34801561019c57600080fd5b506101b760048036038101906101b29190610f89565b610561565b6040516101c89594939291906110ab565b60405180910390f35b3480156101dd57600080fd5b506101f860048036038101906101f39190610f89565b610674565b005b34801561020657600080fd5b50610221600480360381019061021c9190610f89565b61092b565b60405161022e9190611105565b60405180910390f35b34801561024357600080fd5b5061025e60048036038101906102599190611281565b610972565b005b34801561026c57600080fd5b5061028760048036038101906102829190610f89565b610b74565b005b6000600280549050905090565b600360003373ffffffffffffffffffffffffffffffffffffffff1673ffffffffffffffffffffffffffffffffffffffff16815260200190815260200160002060009054906101000a900460ff161561031a576040517f98ed1fe200000000000000000000000000000000000000000000000000000000815260040160405180910390fd5b8060028054905081101561035a576040517f0299dcd400000000000000000000000000000000000000000000000000000000815260040160405180910390fd5b816002818154811061036f5761036e6112f0565b5b906000526020600020906005020160030160009054906101000a900460ff166103c4576040517f4f41135000000000000000000000000000000000000000000000000000000000815260040160405180910390fd5b6000600284815481106103da576103d96112f0565b5b906000526020600020906005020190506004600085815260200190815260200160002060003373ffffffffffffffffffffffffffffffffffffffff1673ffffffffffffffffffffffffffffffffffffffff16815260200190815260200160002060009054906101000a900460ff1661047e576040517f5f49d7db00000000000000000000000000000000000000000000000000000000815260040160405180910390fd5b8060040160008154809291906104939061134e565b919050555060006004600086815260200190815260200160002060003373ffffffffffffffffffffffffffffffffffffffff1673ffffffffffffffffffffffffffffffffffffffff16815260200190815260200160002060006101000a81548160ff021916908315150217905550833373ffffffffffffffffffffffffffffffffffffffff167f658d9b4c377cad8a7b43f91549d653ff367276c656619331d53922d150bd7b1960405160405180910390a350505050565b60008080549050905090565b6000600154905090565b600080606060008060006002878154811061057f5761057e6112f0565b5b906000526020600020906005020190508060000160009054906101000a900473ffffffffffffffffffffffffffffffffffffffff168160010154826002018360030160009054906101000a900460ff1684600401548280546105e0906113a6565b80601f016020809104026020016040519081016040528092919081815260200182805461060c906113a6565b80156106595780601f1061062e57610100808354040283529160200191610659565b820191906000526020600020905b81548152906001019060200180831161063c57829003601f168201915b50505050509250955095509550955095505091939590929450565b600360003373ffffffffffffffffffffffffffffffffffffffff1673ffffffffffffffffffffffffffffffffffffffff16815260200190815260200160002060009054906101000a900460ff16156106f8576040517f98ed1fe200000000000000000000000000000000000000000000000000000000815260040160405180910390fd5b80600280549050811015610738576040517f0299dcd400000000000000000000000000000000000000000000000000000000815260040160405180910390fd5b816002818154811061074d5761074c6112f0565b5b906000526020600020906005020160030160009054906101000a900460ff166107a2576040517f4f41135000000000000000000000000000000000000000000000000000000000815260040160405180910390fd5b826004600082815260200190815260200160002060003373ffffffffffffffffffffffffffffffffffffffff1673ffffffffffffffffffffffffffffffffffffffff16815260200190815260200160002060009054906101000a900460ff16610837576040517ff2b7e6e300000000000000000000000000000000000000000000000000000000815260040160405180910390fd5b60006002858154811061084d5761084c6112f0565b5b90600052602060002090600502019050806004016000815480929190610872906113d7565b919050555060016004600087815260200190815260200160002060003373ffffffffffffffffffffffffffffffffffffffff1673ffffffffffffffffffffffffffffffffffffffff16815260200190815260200160002060006101000a81548160ff021916908315150217905550843373ffffffffffffffffffffffffffffffffffffffff167ffc1206c0fecc618e6de1f8ecc2252fdf36190eba1f431a309f985f4e8c587b7c60405160405180910390a35050505050565b60008082815481106109405761093f6112f0565b5b9060005260206000200160009054906101000a900473ffffffffffffffffffffffffffffffffffffffff169050919050565b600360003373ffffffffffffffffffffffffffffffffffffffff1673ffffffffffffffffffffffffffffffffffffffff16815260200190815260200160002060009054906101000a900460ff16156109f6576040517f98ed1fe200000000000000000000000000000000000000000000000000000000815260040160405180910390fd5b6000600280549050905060026040518060a001604052808673ffffffffffffffffffffffffffffffffffffffff1681526020018581526020018481526020016000151581526020016000815250908060018154018082558091505060019003906000526020600020906005020160009091909190915060008201518160000160006101000a81548173ffffffffffffffffffffffffffffffffffffffff021916908373ffffffffffffffffffffffffffffffffffffffff160217905550602082015181600101556040820151816002019080519060200190610ad9929190610e49565b5060608201518160030160006101000a81548160ff0219169083151502179055506080820151816004015550508373ffffffffffffffffffffffffffffffffffffffff16813373ffffffffffffffffffffffffffffffffffffffff167f5fbdefd353be7d6f35e4fc1790409ac94483437645a1461f073cc2aa18320a418686604051610b6692919061141f565b60405180910390a450505050565b600360003373ffffffffffffffffffffffffffffffffffffffff1673ffffffffffffffffffffffffffffffffffffffff16815260200190815260200160002060009054906101000a900460ff1615610bf8576040517f98ed1fe200000000000000000000000000000000000000000000000000000000815260040160405180910390fd5b80600280549050811015610c38576040517f0299dcd400000000000000000000000000000000000000000000000000000000815260040160405180910390fd5b8160028181548110610c4d57610c4c6112f0565b5b906000526020600020906005020160030160009054906101000a900460ff16610ca2576040517f4f41135000000000000000000000000000000000000000000000000000000000815260040160405180910390fd5b600060028481548110610cb857610cb76112f0565b5b9060005260206000209060050201905060015481600401541015610d08576040517febfdaded00000000000000000000000000000000000000000000000000000000815260040160405180910390fd5b60018160030160006101000a81548160ff02191690831515021790555060008160000160009054906101000a900473ffffffffffffffffffffffffffffffffffffffff1673ffffffffffffffffffffffffffffffffffffffff16826001015483600201604051610d7891906114ee565b60006040518083038185875af1925050503d8060008114610db5576040519150601f19603f3d011682016040523d82523d6000602084013e610dba565b606091505b5050905080610dfe576040517f08c379a0000000000000000000000000000000000000000000000000000000008152600401610df590611562565b60405180910390fd5b843373ffffffffffffffffffffffffffffffffffffffff167fe606ed092c4439c5039cc311b73e50d9ababba5d2186be3e09b8d830efa222a160405160405180910390a35050505050565b828054610e55906113a6565b90600052602060002090601f016020900481019282610e775760008555610ebe565b82601f10610e9057805160ff1916838001178555610ebe565b82800160010185558215610ebe579182015b82811115610ebd578251825591602001919060010190610ea2565b5b509050610ecb9190610ecf565b5090565b5b80821115610ee8576000816000905550600101610ed0565b5090565b6000819050919050565b610eff81610eec565b82525050565b6000604082019050610f1a6000830185610ef6565b610f276020830184610ef6565b9392505050565b6000602082019050610f436000830184610ef6565b92915050565b6000604051905090565b600080fd5b600080fd5b610f6681610eec565b8114610f7157600080fd5b50565b600081359050610f8381610f5d565b92915050565b600060208284031215610f9f57610f9e610f53565b5b6000610fad84828501610f74565b91505092915050565b600073ffffffffffffffffffffffffffffffffffffffff82169050919050565b6000610fe182610fb6565b9050919050565b610ff181610fd6565b82525050565b600081519050919050565b600082825260208201905092915050565b60005b83811015611031578082015181840152602081019050611016565b83811115611040576000848401525b50505050565b6000601f19601f8301169050919050565b600061106282610ff7565b61106c8185611002565b935061107c818560208601611013565b61108581611046565b840191505092915050565b60008115159050919050565b6110a581611090565b82525050565b600060a0820190506110c06000830188610fe8565b6110cd6020830187610ef6565b81810360408301526110df8186611057565b90506110ee606083018561109c565b6110fb6080830184610ef6565b9695505050505050565b600060208201905061111a6000830184610fe8565b92915050565b61112981610fd6565b811461113457600080fd5b50565b60008135905061114681611120565b92915050565b600080fd5b600080fd5b7f4e487b7100000000000000000000000000000000000000000000000000000000600052604160045260246000fd5b61118e82611046565b810181811067ffffffffffffffff821117156111ad576111ac611156565b5b80604052505050565b60006111c0610f49565b90506111cc8282611185565b919050565b600067ffffffffffffffff8211156111ec576111eb611156565b5b6111f582611046565b9050602081019050919050565b82818337600083830152505050565b600061122461121f846111d1565b6111b6565b9050828152602081018484840111156112405761123f611151565b5b61124b848285611202565b509392505050565b600082601f8301126112685761126761114c565b5b8135611278848260208601611211565b91505092915050565b60008060006060848603121561129a57611299610f53565b5b60006112a886828701611137565b93505060206112b986828701610f74565b925050604084013567ffffffffffffffff8111156112da576112d9610f58565b5b6112e686828701611253565b9150509250925092565b7f4e487b7100000000000000000000000000000000000000000000000000000000600052603260045260246000fd5b7f4e487b7100000000000000000000000000000000000000000000000000000000600052601160045260246000fd5b600061135982610eec565b91506000820361136c5761136b61131f565b5b600182039050919050565b7f4e487b7100000000000000000000000000000000000000000000000000000000600052602260045260246000fd5b600060028204905060018216806113be57607f821691505b6020821081036113d1576113d0611377565b5b50919050565b60006113e282610eec565b91507fffffffffffffffffffffffffffffffffffffffffffffffffffffffffffffffff82036114145761141361131f565b5b600182019050919050565b60006040820190506114346000830185610ef6565b81810360208301526114468184611057565b90509392505050565b600081905092915050565b60008190508160005260206000209050919050565b6000815461147c816113a6565b611486818661144f565b945060018216600081146114a157600181146114b2576114e5565b60ff198316865281860193506114e5565b6114bb8561145a565b60005b838110156114dd578154818901526001820191506020810190506114be565b838801955050505b50505092915050565b60006114fa828461146f565b915081905092915050565b600082825260208201905092915050565b7f7478206661696c65640000000000000000000000000000000000000000000000600082015250565b600061154c600983611505565b915061155782611516565b602082019050919050565b6000602082019050818103600083015261157b8161153f565b905091905056fea2646970667358221220d866b423a5a875f2118ba88f2a6d6320c69b5dadf16b4e48f1d1186f7e3cd2be64736f6c634300080d0033",
  "devdoc": {
    "kind": "dev",
    "methods": {},
    "version": 1
  },
  "userdoc": {
    "kind": "user",
    "methods": {},
    "version": 1
  },
  "storageLayout": {
    "storage": [
      {
        "astId": 18,
        "contract": "contracts/MultiSigWallet.sol:MultiSigWallet",
        "label": "s_owners",
        "offset": 0,
        "slot": "0",
        "type": "t_array(t_address)dyn_storage"
      },
      {
        "astId": 20,
        "contract": "contracts/MultiSigWallet.sol:MultiSigWallet",
        "label": "s_numConfirmationsRequired",
        "offset": 0,
        "slot": "1",
        "type": "t_uint256"
      },
      {
        "astId": 35,
        "contract": "contracts/MultiSigWallet.sol:MultiSigWallet",
        "label": "s_transactions",
        "offset": 0,
        "slot": "2",
        "type": "t_array(t_struct(Transaction)31_storage)dyn_storage"
      },
      {
        "astId": 39,
        "contract": "contracts/MultiSigWallet.sol:MultiSigWallet",
        "label": "isOwner",
        "offset": 0,
        "slot": "3",
        "type": "t_mapping(t_address,t_bool)"
      },
      {
        "astId": 45,
        "contract": "contracts/MultiSigWallet.sol:MultiSigWallet",
        "label": "isConfirmed",
        "offset": 0,
        "slot": "4",
        "type": "t_mapping(t_uint256,t_mapping(t_address,t_bool))"
      }
    ],
    "types": {
      "t_address": {
        "encoding": "inplace",
        "label": "address",
        "numberOfBytes": "20"
      },
      "t_array(t_address)dyn_storage": {
        "base": "t_address",
        "encoding": "dynamic_array",
        "label": "address[]",
        "numberOfBytes": "32"
      },
      "t_array(t_struct(Transaction)31_storage)dyn_storage": {
        "base": "t_struct(Transaction)31_storage",
        "encoding": "dynamic_array",
        "label": "struct MultiSigWallet.Transaction[]",
        "numberOfBytes": "32"
      },
      "t_bool": {
        "encoding": "inplace",
        "label": "bool",
        "numberOfBytes": "1"
      },
      "t_bytes_storage": {
        "encoding": "bytes",
        "label": "bytes",
        "numberOfBytes": "32"
      },
      "t_mapping(t_address,t_bool)": {
        "encoding": "mapping",
        "key": "t_address",
        "label": "mapping(address => bool)",
        "numberOfBytes": "32",
        "value": "t_bool"
      },
      "t_mapping(t_uint256,t_mapping(t_address,t_bool))": {
        "encoding": "mapping",
        "key": "t_uint256",
        "label": "mapping(uint256 => mapping(address => bool))",
        "numberOfBytes": "32",
        "value": "t_mapping(t_address,t_bool)"
      },
      "t_struct(Transaction)31_storage": {
        "encoding": "inplace",
        "label": "struct MultiSigWallet.Transaction",
        "members": [
          {
            "astId": 22,
            "contract": "contracts/MultiSigWallet.sol:MultiSigWallet",
            "label": "to",
            "offset": 0,
            "slot": "0",
            "type": "t_address"
          },
          {
            "astId": 24,
            "contract": "contracts/MultiSigWallet.sol:MultiSigWallet",
            "label": "value",
            "offset": 0,
            "slot": "1",
            "type": "t_uint256"
          },
          {
            "astId": 26,
            "contract": "contracts/MultiSigWallet.sol:MultiSigWallet",
            "label": "data",
            "offset": 0,
            "slot": "2",
            "type": "t_bytes_storage"
          },
          {
            "astId": 28,
            "contract": "contracts/MultiSigWallet.sol:MultiSigWallet",
            "label": "executed",
            "offset": 0,
            "slot": "3",
            "type": "t_bool"
          },
          {
            "astId": 30,
            "contract": "contracts/MultiSigWallet.sol:MultiSigWallet",
            "label": "numConfirmations",
            "offset": 0,
            "slot": "4",
            "type": "t_uint256"
          }
        ],
        "numberOfBytes": "160"
      },
      "t_uint256": {
        "encoding": "inplace",
        "label": "uint256",
        "numberOfBytes": "32"
      }
    }
  }
}